{"abi":[{"type":"constructor","inputs":[],"stateMutability":"nonpayable"},{"type":"function","name":"collectFee","inputs":[],"outputs":[],"stateMutability":"payable"},{"type":"function","name":"getAvailableFees","inputs":[],"outputs":[{"name":"","type":"uint256","internalType":"uint256"}],"stateMutability":"view"},{"type":"function","name":"getTotalFeesCollected","inputs":[],"outputs":[{"name":"","type":"uint256","internalType":"uint256"}],"stateMutability":"view"},{"type":"function","name":"getTotalFeesWithdrawn","inputs":[],"outputs":[{"name":"","type":"uint256","internalType":"uint256"}],"stateMutability":"view"},{"type":"function","name":"owner","inputs":[],"outputs":[{"name":"","type":"address","internalType":"address"}],"stateMutability":"view"},{"type":"function","name":"renounceOwnership","inputs":[],"outputs":[],"stateMutability":"nonpayable"},{"type":"function","name":"transferOwnership","inputs":[{"name":"newOwner","type":"address","internalType":"address"}],"outputs":[],"stateMutability":"nonpayable"},{"type":"function","name":"withdrawFees","inputs":[{"name":"recipient","type":"address","internalType":"address"},{"name":"amount","type":"uint256","internalType":"uint256"}],"outputs":[],"stateMutability":"nonpayable"},{"type":"event","name":"FeeCollected","inputs":[{"name":"amount","type":"uint256","indexed":false,"internalType":"uint256"}],"anonymous":false},{"type":"event","name":"FeeWithdrawn","inputs":[{"name":"recipient","type":"address","indexed":true,"internalType":"address"},{"name":"amount","type":"uint256","indexed":false,"internalType":"uint256"}],"anonymous":false},{"type":"event","name":"OwnershipTransferred","inputs":[{"name":"previousOwner","type":"address","indexed":true,"internalType":"address"},{"name":"newOwner","type":"address","indexed":true,"internalType":"address"}],"anonymous":false},{"type":"error","name":"OwnableInvalidOwner","inputs":[{"name":"owner","type":"address","internalType":"address"}]},{"type":"error","name":"OwnableUnauthorizedAccount","inputs":[{"name":"account","type":"address","internalType":"address"}]},{"type":"error","name":"ReentrancyGuardReentrantCall","inputs":[]}],"bytecode":{"object":"0x608060405234801561000f575f80fd5b50338061003557604051631e4fbdf760e01b81525f600482015260240160405180910390fd5b61003e81610048565b5060018055610097565b5f80546001600160a01b038381166001600160a01b0319831681178455604051919092169283917f8be0079c531659141344cd1fd0a4f28419497f9722a3daafe3b4186f6b6457e09190a35050565b610656806100a45f395ff3fe608060405260043610610079575f3560e01c8063ad3b1b471161004c578063ad3b1b47146100f4578063d4d5d32a14610113578063f2fde38b1461011b578063f582fcd91461013a575f80fd5b806340806f7c1461007d57806346876508146100a4578063715018a6146100b85780638da5cb5b146100ce575b5f80fd5b348015610088575f80fd5b5061009161014e565b6040519081526020015b60405180910390f35b3480156100af575f80fd5b50600254610091565b3480156100c3575f80fd5b506100cc610164565b005b3480156100d9575f80fd5b505f546040516001600160a01b03909116815260200161009b565b3480156100ff575f80fd5b506100cc61010e366004610598565b610177565b6100cc6103ea565b348015610126575f80fd5b506100cc6101353660046105c0565b61049b565b348015610145575f80fd5b50600354610091565b5f60035460025461015f91906105f4565b905090565b61016c6104d8565b6101755f610504565b565b61017f6104d8565b610187610553565b6001600160a01b0382166101f05760405162461bcd60e51b815260206004820152602560248201527f506c6174666f726d4665654d616e616765723a20496e76616c696420726563696044820152641c1a595b9d60da1b60648201526084015b60405180910390fd5b5f81116102595760405162461bcd60e51b815260206004820152603160248201527f506c6174666f726d4665654d616e616765723a20416d6f756e74206d75737420604482015270062652067726561746572207468616e203607c1b60648201526084016101e7565b5f60035460025461026a91906105f4565b9050808211156102d45760405162461bcd60e51b815260206004820152602f60248201527f506c6174666f726d4665654d616e616765723a20496e73756666696369656e7460448201526e20617661696c61626c65206665657360881b60648201526084016101e7565b8160035f8282546102e5919061060d565b90915550506040515f906001600160a01b0385169084908381818185875af1925050503d805f8114610332576040519150601f19603f3d011682016040523d82523d5f602084013e610337565b606091505b50509050806103985760405162461bcd60e51b815260206004820152602760248201527f506c6174666f726d4665654d616e616765723a204661696c656420746f2073656044820152666e64206665657360c81b60648201526084016101e7565b836001600160a01b03167f78473f3f373f7673597f4f0fa5873cb4d375fea6d4339ad6b56dbd411513cb3f846040516103d391815260200190565b60405180910390a250506103e660018055565b5050565b5f34116104505760405162461bcd60e51b815260206004820152602e60248201527f506c6174666f726d4665654d616e616765723a20466565206d7573742062652060448201526d067726561746572207468616e20360941b60648201526084016101e7565b3460025f828254610461919061060d565b90915550506040513481527fc472cb3a7a659a876494d66b3063145f279701771d6150b9329c31611ed6405c9060200160405180910390a1565b6104a36104d8565b6001600160a01b0381166104cc57604051631e4fbdf760e01b81525f60048201526024016101e7565b6104d581610504565b50565b5f546001600160a01b031633146101755760405163118cdaa760e01b81523360048201526024016101e7565b5f80546001600160a01b038381166001600160a01b0319831681178455604051919092169283917f8be0079c531659141344cd1fd0a4f28419497f9722a3daafe3b4186f6b6457e09190a35050565b60026001540361057657604051633ee5aeb560e01b815260040160405180910390fd5b6002600155565b80356001600160a01b0381168114610593575f80fd5b919050565b5f80604083850312156105a9575f80fd5b6105b28361057d565b946020939093013593505050565b5f602082840312156105d0575f80fd5b6105d98261057d565b9392505050565b634e487b7160e01b5f52601160045260245ffd5b81810381811115610607576106076105e0565b92915050565b80820180821115610607576106076105e056fea264697066735822122010b007e012621b42d5198153b3f35f0a8d5d85576c184707a54622e81ca47df464736f6c63430008170033","linkReferences":{}},"methodIdentifiers":{"collectFee()":"d4d5d32a","getAvailableFees()":"40806f7c","getTotalFeesCollected()":"46876508","getTotalFeesWithdrawn()":"f582fcd9","owner()":"8da5cb5b","renounceOwnership()":"715018a6","transferOwnership(address)":"f2fde38b","withdrawFees(address,uint256)":"ad3b1b47"},"id":1}