{"abi":[{"type":"constructor","inputs":[],"stateMutability":"nonpayable"},{"type":"function","name":"approve","inputs":[{"name":"to","type":"address","internalType":"address"},{"name":"tokenId","type":"uint256","internalType":"uint256"}],"outputs":[],"stateMutability":"nonpayable"},{"type":"function","name":"balanceOf","inputs":[{"name":"owner","type":"address","internalType":"address"}],"outputs":[{"name":"","type":"uint256","internalType":"uint256"}],"stateMutability":"view"},{"type":"function","name":"getApproved","inputs":[{"name":"tokenId","type":"uint256","internalType":"uint256"}],"outputs":[{"name":"","type":"address","internalType":"address"}],"stateMutability":"view"},{"type":"function","name":"getScriptDetails","inputs":[{"name":"tokenId","type":"uint256","internalType":"uint256"}],"outputs":[{"name":"scriptHash","type":"bytes32","internalType":"bytes32"},{"name":"submissionId","type":"uint256","internalType":"uint256"}],"stateMutability":"view"},{"type":"function","name":"isApprovedForAll","inputs":[{"name":"owner","type":"address","internalType":"address"},{"name":"operator","type":"address","internalType":"address"}],"outputs":[{"name":"","type":"bool","internalType":"bool"}],"stateMutability":"view"},{"type":"function","name":"mintScriptNFT","inputs":[{"name":"recipient","type":"address","internalType":"address"},{"name":"scriptHash","type":"bytes32","internalType":"bytes32"},{"name":"submissionId","type":"uint256","internalType":"uint256"}],"outputs":[{"name":"","type":"uint256","internalType":"uint256"}],"stateMutability":"nonpayable"},{"type":"function","name":"name","inputs":[],"outputs":[{"name":"","type":"string","internalType":"string"}],"stateMutability":"view"},{"type":"function","name":"owner","inputs":[],"outputs":[{"name":"","type":"address","internalType":"address"}],"stateMutability":"view"},{"type":"function","name":"ownerOf","inputs":[{"name":"tokenId","type":"uint256","internalType":"uint256"}],"outputs":[{"name":"","type":"address","internalType":"address"}],"stateMutability":"view"},{"type":"function","name":"renounceOwnership","inputs":[],"outputs":[],"stateMutability":"nonpayable"},{"type":"function","name":"safeTransferFrom","inputs":[{"name":"from","type":"address","internalType":"address"},{"name":"to","type":"address","internalType":"address"},{"name":"tokenId","type":"uint256","internalType":"uint256"}],"outputs":[],"stateMutability":"nonpayable"},{"type":"function","name":"safeTransferFrom","inputs":[{"name":"from","type":"address","internalType":"address"},{"name":"to","type":"address","internalType":"address"},{"name":"tokenId","type":"uint256","internalType":"uint256"},{"name":"data","type":"bytes","internalType":"bytes"}],"outputs":[],"stateMutability":"nonpayable"},{"type":"function","name":"setApprovalForAll","inputs":[{"name":"operator","type":"address","internalType":"address"},{"name":"approved","type":"bool","internalType":"bool"}],"outputs":[],"stateMutability":"nonpayable"},{"type":"function","name":"supportsInterface","inputs":[{"name":"interfaceId","type":"bytes4","internalType":"bytes4"}],"outputs":[{"name":"","type":"bool","internalType":"bool"}],"stateMutability":"view"},{"type":"function","name":"symbol","inputs":[],"outputs":[{"name":"","type":"string","internalType":"string"}],"stateMutability":"view"},{"type":"function","name":"tokenURI","inputs":[{"name":"tokenId","type":"uint256","internalType":"uint256"}],"outputs":[{"name":"","type":"string","internalType":"string"}],"stateMutability":"view"},{"type":"function","name":"transferFrom","inputs":[{"name":"from","type":"address","internalType":"address"},{"name":"to","type":"address","internalType":"address"},{"name":"tokenId","type":"uint256","internalType":"uint256"}],"outputs":[],"stateMutability":"nonpayable"},{"type":"function","name":"transferOwnership","inputs":[{"name":"newOwner","type":"address","internalType":"address"}],"outputs":[],"stateMutability":"nonpayable"},{"type":"function","name":"transferTokenOwnership","inputs":[{"name":"tokenId","type":"uint256","internalType":"uint256"},{"name":"to","type":"address","internalType":"address"}],"outputs":[],"stateMutability":"nonpayable"},{"type":"event","name":"Approval","inputs":[{"name":"owner","type":"address","indexed":true,"internalType":"address"},{"name":"approved","type":"address","indexed":true,"internalType":"address"},{"name":"tokenId","type":"uint256","indexed":true,"internalType":"uint256"}],"anonymous":false},{"type":"event","name":"ApprovalForAll","inputs":[{"name":"owner","type":"address","indexed":true,"internalType":"address"},{"name":"operator","type":"address","indexed":true,"internalType":"address"},{"name":"approved","type":"bool","indexed":false,"internalType":"bool"}],"anonymous":false},{"type":"event","name":"BatchMetadataUpdate","inputs":[{"name":"_fromTokenId","type":"uint256","indexed":false,"internalType":"uint256"},{"name":"_toTokenId","type":"uint256","indexed":false,"internalType":"uint256"}],"anonymous":false},{"type":"event","name":"MetadataUpdate","inputs":[{"name":"_tokenId","type":"uint256","indexed":false,"internalType":"uint256"}],"anonymous":false},{"type":"event","name":"OwnershipTransferred","inputs":[{"name":"previousOwner","type":"address","indexed":true,"internalType":"address"},{"name":"newOwner","type":"address","indexed":true,"internalType":"address"}],"anonymous":false},{"type":"event","name":"ScriptNFTMinted","inputs":[{"name":"tokenId","type":"uint256","indexed":true,"internalType":"uint256"},{"name":"recipient","type":"address","indexed":true,"internalType":"address"},{"name":"scriptHash","type":"bytes32","indexed":false,"internalType":"bytes32"}],"anonymous":false},{"type":"event","name":"TokenOwnershipTransferred","inputs":[{"name":"tokenId","type":"uint256","indexed":true,"internalType":"uint256"},{"name":"from","type":"address","indexed":true,"internalType":"address"},{"name":"to","type":"address","indexed":true,"internalType":"address"}],"anonymous":false},{"type":"event","name":"Transfer","inputs":[{"name":"from","type":"address","indexed":true,"internalType":"address"},{"name":"to","type":"address","indexed":true,"internalType":"address"},{"name":"tokenId","type":"uint256","indexed":true,"internalType":"uint256"}],"anonymous":false},{"type":"error","name":"ERC721IncorrectOwner","inputs":[{"name":"sender","type":"address","internalType":"address"},{"name":"tokenId","type":"uint256","internalType":"uint256"},{"name":"owner","type":"address","internalType":"address"}]},{"type":"error","name":"ERC721InsufficientApproval","inputs":[{"name":"operator","type":"address","internalType":"address"},{"name":"tokenId","type":"uint256","internalType":"uint256"}]},{"type":"error","name":"ERC721InvalidApprover","inputs":[{"name":"approver","type":"address","internalType":"address"}]},{"type":"error","name":"ERC721InvalidOperator","inputs":[{"name":"operator","type":"address","internalType":"address"}]},{"type":"error","name":"ERC721InvalidOwner","inputs":[{"name":"owner","type":"address","internalType":"address"}]},{"type":"error","name":"ERC721InvalidReceiver","inputs":[{"name":"receiver","type":"address","internalType":"address"}]},{"type":"error","name":"ERC721InvalidSender","inputs":[{"name":"sender","type":"address","internalType":"address"}]},{"type":"error","name":"ERC721NonexistentToken","inputs":[{"name":"tokenId","type":"uint256","internalType":"uint256"}]},{"type":"error","name":"OwnableInvalidOwner","inputs":[{"name":"owner","type":"address","internalType":"address"}]},{"type":"error","name":"OwnableUnauthorizedAccount","inputs":[{"name":"account","type":"address","internalType":"address"}]}],"bytecode":{"object":"0x608060405234801562000010575f80fd5b50336040518060400160405280601481526020017f426c6f636b4372656174697665205363726970740000000000000000000000008152506040518060400160405280600681526020016514d0d492541560d21b815250815f9081620000779190620001bc565b506001620000868282620001bc565b5050506001600160a01b038116620000b757604051631e4fbdf760e01b81525f600482015260240160405180910390fd5b620000c281620000cd565b505f60085562000288565b600780546001600160a01b038381166001600160a01b0319831681179093556040519116919082907f8be0079c531659141344cd1fd0a4f28419497f9722a3daafe3b4186f6b6457e0905f90a35050565b634e487b7160e01b5f52604160045260245ffd5b600181811c908216806200014757607f821691505b6020821081036200016657634e487b7160e01b5f52602260045260245ffd5b50919050565b601f821115620001b757805f5260205f20601f840160051c81016020851015620001935750805b601f840160051c820191505b81811015620001b4575f81556001016200019f565b50505b505050565b81516001600160401b03811115620001d857620001d86200011e565b620001f081620001e9845462000132565b846200016c565b602080601f83116001811462000226575f84156200020e5750858301515b5f19600386901b1c1916600185901b17855562000280565b5f85815260208120601f198616915b82811015620002565788860151825594840194600190910190840162000235565b50858210156200027457878501515f19600388901b60f8161c191681555b505060018460011b0185555b505050505050565b6114cf80620002965f395ff3fe608060405234801561000f575f80fd5b506004361061011c575f3560e01c80637248e9f3116100a9578063c87b56dd1161006e578063c87b56dd14610251578063d97da77514610264578063e985e9c51461028c578063e9cf64e61461029f578063f2fde38b146102b2575f80fd5b80637248e9f3146101ff5780638da5cb5b1461021257806395d89b4114610223578063a22cb4651461022b578063b88d4fde1461023e575f80fd5b806323b872dd116100ef57806323b872dd1461019d57806342842e0e146101b05780636352211e146101c357806370a08231146101d6578063715018a6146101f7575f80fd5b806301ffc9a71461012057806306fdde0314610148578063081812fc1461015d578063095ea7b314610188575b5f80fd5b61013361012e3660046110ee565b6102c5565b60405190151581526020015b60405180910390f35b6101506102ef565b60405161013f9190611156565b61017061016b366004611168565b61037e565b6040516001600160a01b03909116815260200161013f565b61019b61019636600461119a565b6103a5565b005b61019b6101ab3660046111c2565b6103b4565b61019b6101be3660046111c2565b610442565b6101706101d1366004611168565b610461565b6101e96101e43660046111fb565b61046b565b60405190815260200161013f565b61019b6104b0565b6101e961020d366004611214565b6104c3565b6007546001600160a01b0316610170565b610150610550565b61019b610239366004611244565b61055f565b61019b61024c366004611291565b61056a565b61015061025f366004611168565b610582565b610277610272366004611168565b61068d565b6040805192835260208301919091520161013f565b61013361029a366004611366565b610712565b61019b6102ad366004611397565b61073f565b61019b6102c03660046111fb565b6108a0565b5f6001600160e01b03198216632483248360e11b14806102e957506102e9826108dd565b92915050565b60605f80546102fd906113b8565b80601f0160208091040260200160405190810160405280929190818152602001828054610329906113b8565b80156103745780601f1061034b57610100808354040283529160200191610374565b820191905f5260205f20905b81548152906001019060200180831161035757829003601f168201915b5050505050905090565b5f6103888261092c565b505f828152600460205260409020546001600160a01b03166102e9565b6103b0828233610964565b5050565b6001600160a01b0382166103e257604051633250574960e11b81525f60048201526024015b60405180910390fd5b5f6103ee838333610971565b9050836001600160a01b0316816001600160a01b03161461043c576040516364283d7b60e01b81526001600160a01b03808616600483015260248201849052821660448201526064016103d9565b50505050565b61045c83838360405180602001604052805f81525061056a565b505050565b5f6102e98261092c565b5f6001600160a01b038216610495576040516322718ad960e21b81525f60048201526024016103d9565b506001600160a01b03165f9081526003602052604090205490565b6104b8610a63565b6104c15f610a90565b565b5f6104cc610a63565b60088054905f6104db836113f0565b90915550506008546104ed8582610ae1565b5f818152600960209081526040808320879055600a82529182902085905590518581526001600160a01b0387169183917fd1d373d7f2407c30d9ec4eea1c45bc6c832570e7305ea0c72625b3f2f94a313e910160405180910390a3949350505050565b6060600180546102fd906113b8565b6103b0338383610afa565b6105758484846103b4565b61043c3385858585610b98565b606061058d8261092c565b505f82815260066020526040812080546105a6906113b8565b80601f01602080910402602001604051908101604052809291908181526020018280546105d2906113b8565b801561061d5780601f106105f45761010080835404028352916020019161061d565b820191905f5260205f20905b81548152906001019060200180831161060057829003601f168201915b505050505090505f61063960408051602081019091525f815290565b905080515f0361064a575092915050565b81511561067c578082604051602001610664929190611414565b60405160208183030381529060405292505050919050565b61068584610cc0565b949350505050565b5f8181526002602052604081205481906001600160a01b03166106f25760405162461bcd60e51b815260206004820152601f60248201527f5363726970744e46543a20546f6b656e20646f6573206e6f742065786973740060448201526064016103d9565b50505f90815260096020908152604080832054600a909252909120549091565b6001600160a01b039182165f90815260056020908152604080832093909416825291909152205460ff1690565b5f828152600260205260409020546001600160a01b03166107a25760405162461bcd60e51b815260206004820152601f60248201527f5363726970744e46543a20546f6b656e20646f6573206e6f742065786973740060448201526064016103d9565b336107ac83610461565b6001600160a01b031614806107d15750336107c68361037e565b6001600160a01b0316145b806107e957506107e96107e383610461565b33610712565b6108435760405162461bcd60e51b815260206004820152602560248201527f5363726970744e46543a204e6f7420617574686f72697a656420746f207472616044820152643739b332b960d91b60648201526084016103d9565b5f61084d83610461565b905061085a8183856103b4565b816001600160a01b0316816001600160a01b0316847fa2e7a8a370533462b13ece2478d36768ad75462e24ab1658cbfb7858f6d8aab060405160405180910390a4505050565b6108a8610a63565b6001600160a01b0381166108d157604051631e4fbdf760e01b81525f60048201526024016103d9565b6108da81610a90565b50565b5f6001600160e01b031982166380ac58cd60e01b148061090d57506001600160e01b03198216635b5e139f60e01b145b806102e957506301ffc9a760e01b6001600160e01b03198316146102e9565b5f818152600260205260408120546001600160a01b0316806102e957604051637e27328960e01b8152600481018490526024016103d9565b61045c8383836001610d31565b5f828152600260205260408120546001600160a01b039081169083161561099d5761099d818486610e35565b6001600160a01b038116156109d7576109b85f855f80610d31565b6001600160a01b0381165f90815260036020526040902080545f190190555b6001600160a01b03851615610a05576001600160a01b0385165f908152600360205260409020805460010190555b5f8481526002602052604080822080546001600160a01b0319166001600160a01b0389811691821790925591518793918516917fddf252ad1be2c89b69c2b068fc378daa952ba7f163c4a11628f55a4df523b3ef91a4949350505050565b6007546001600160a01b031633146104c15760405163118cdaa760e01b81523360048201526024016103d9565b600780546001600160a01b038381166001600160a01b0319831681179093556040519116919082907f8be0079c531659141344cd1fd0a4f28419497f9722a3daafe3b4186f6b6457e0905f90a35050565b6103b0828260405180602001604052805f815250610e99565b6001600160a01b038216610b2c57604051630b61174360e31b81526001600160a01b03831660048201526024016103d9565b6001600160a01b038381165f81815260056020908152604080832094871680845294825291829020805460ff191686151590811790915591519182527f17307eab39ab6107e8899845ad3d59bd9653f200f220920489ca2b5937696c31910160405180910390a3505050565b6001600160a01b0383163b15610cb957604051630a85bd0160e11b81526001600160a01b0384169063150b7a0290610bda908890889087908790600401611442565b6020604051808303815f875af1925050508015610c14575060408051601f3d908101601f19168201909252610c119181019061147e565b60015b610c7b573d808015610c41576040519150601f19603f3d011682016040523d82523d5f602084013e610c46565b606091505b5080515f03610c7357604051633250574960e11b81526001600160a01b03851660048201526024016103d9565b805181602001fd5b6001600160e01b03198116630a85bd0160e11b14610cb757604051633250574960e11b81526001600160a01b03851660048201526024016103d9565b505b5050505050565b6060610ccb8261092c565b505f610ce160408051602081019091525f815290565b90505f815111610cff5760405180602001604052805f815250610d2a565b80610d0984610eb0565b604051602001610d1a929190611414565b6040516020818303038152906040525b9392505050565b8080610d4557506001600160a01b03821615155b15610e06575f610d548461092c565b90506001600160a01b03831615801590610d805750826001600160a01b0316816001600160a01b031614155b8015610d935750610d918184610712565b155b15610dbc5760405163a9fbf51f60e01b81526001600160a01b03841660048201526024016103d9565b8115610e045783856001600160a01b0316826001600160a01b03167f8c5be1e5ebec7d5bd14f71427d1e84f3dd0314c0f7b2291e5b200ac8c7c3b92560405160405180910390a45b505b50505f90815260046020526040902080546001600160a01b0319166001600160a01b0392909216919091179055565b610e40838383610f40565b61045c576001600160a01b038316610e6e57604051637e27328960e01b8152600481018290526024016103d9565b60405163177e802f60e01b81526001600160a01b0383166004820152602481018290526044016103d9565b610ea38383610fa1565b61045c335f858585610b98565b60605f610ebc83611002565b60010190505f8167ffffffffffffffff811115610edb57610edb61127d565b6040519080825280601f01601f191660200182016040528015610f05576020820181803683370190505b5090508181016020015b5f19016f181899199a1a9b1b9c1cb0b131b232b360811b600a86061a8153600a8504945084610f0f57509392505050565b5f6001600160a01b038316158015906106855750826001600160a01b0316846001600160a01b03161480610f795750610f798484610712565b806106855750505f908152600460205260409020546001600160a01b03908116911614919050565b6001600160a01b038216610fca57604051633250574960e11b81525f60048201526024016103d9565b5f610fd683835f610971565b90506001600160a01b0381161561045c576040516339e3563760e11b81525f60048201526024016103d9565b5f8072184f03e93ff9f4daa797ed6e38ed64bf6a1f0160401b83106110405772184f03e93ff9f4daa797ed6e38ed64bf6a1f0160401b830492506040015b6d04ee2d6d415b85acef8100000000831061106c576d04ee2d6d415b85acef8100000000830492506020015b662386f26fc10000831061108a57662386f26fc10000830492506010015b6305f5e10083106110a2576305f5e100830492506008015b61271083106110b657612710830492506004015b606483106110c8576064830492506002015b600a83106102e95760010192915050565b6001600160e01b0319811681146108da575f80fd5b5f602082840312156110fe575f80fd5b8135610d2a816110d9565b5f5b8381101561112357818101518382015260200161110b565b50505f910152565b5f8151808452611142816020860160208601611109565b601f01601f19169290920160200192915050565b602081525f610d2a602083018461112b565b5f60208284031215611178575f80fd5b5035919050565b80356001600160a01b0381168114611195575f80fd5b919050565b5f80604083850312156111ab575f80fd5b6111b48361117f565b946020939093013593505050565b5f805f606084860312156111d4575f80fd5b6111dd8461117f565b92506111eb6020850161117f565b9150604084013590509250925092565b5f6020828403121561120b575f80fd5b610d2a8261117f565b5f805f60608486031215611226575f80fd5b61122f8461117f565b95602085013595506040909401359392505050565b5f8060408385031215611255575f80fd5b61125e8361117f565b915060208301358015158114611272575f80fd5b809150509250929050565b634e487b7160e01b5f52604160045260245ffd5b5f805f80608085870312156112a4575f80fd5b6112ad8561117f565b93506112bb6020860161117f565b925060408501359150606085013567ffffffffffffffff808211156112de575f80fd5b818701915087601f8301126112f1575f80fd5b8135818111156113035761130361127d565b604051601f8201601f19908116603f0116810190838211818310171561132b5761132b61127d565b816040528281528a6020848701011115611343575f80fd5b826020860160208301375f60208483010152809550505050505092959194509250565b5f8060408385031215611377575f80fd5b6113808361117f565b915061138e6020840161117f565b90509250929050565b5f80604083850312156113a8575f80fd5b8235915061138e6020840161117f565b600181811c908216806113cc57607f821691505b6020821081036113ea57634e487b7160e01b5f52602260045260245ffd5b50919050565b5f6001820161140d57634e487b7160e01b5f52601160045260245ffd5b5060010190565b5f8351611425818460208801611109565b835190830190611439818360208801611109565b01949350505050565b6001600160a01b03858116825284166020820152604081018390526080606082018190525f906114749083018461112b565b9695505050505050565b5f6020828403121561148e575f80fd5b8151610d2a816110d956fea264697066735822122067dcb4882ec59b08474e5f62436d6a0d05750b23e159f2b182e3fcbecb54d8fc64736f6c63430008170033","linkReferences":{}},"methodIdentifiers":{"approve(address,uint256)":"095ea7b3","balanceOf(address)":"70a08231","getApproved(uint256)":"081812fc","getScriptDetails(uint256)":"d97da775","isApprovedForAll(address,address)":"e985e9c5","mintScriptNFT(address,bytes32,uint256)":"7248e9f3","name()":"06fdde03","owner()":"8da5cb5b","ownerOf(uint256)":"6352211e","renounceOwnership()":"715018a6","safeTransferFrom(address,address,uint256)":"42842e0e","safeTransferFrom(address,address,uint256,bytes)":"b88d4fde","setApprovalForAll(address,bool)":"a22cb465","supportsInterface(bytes4)":"01ffc9a7","symbol()":"95d89b41","tokenURI(uint256)":"c87b56dd","transferFrom(address,address,uint256)":"23b872dd","transferOwnership(address)":"f2fde38b","transferTokenOwnership(uint256,address)":"e9cf64e6"},"id":3}