{"abi":[{"type":"constructor","inputs":[],"stateMutability":"nonpayable"},{"type":"function","name":"closeProject","inputs":[{"name":"projectId","type":"uint256","internalType":"uint256"}],"outputs":[],"stateMutability":"nonpayable"},{"type":"function","name":"completeProject","inputs":[{"name":"projectId","type":"uint256","internalType":"uint256"}],"outputs":[],"stateMutability":"nonpayable"},{"type":"function","name":"createProject","inputs":[{"name":"projectHash","type":"bytes32","internalType":"bytes32"}],"outputs":[{"name":"","type":"uint256","internalType":"uint256"}],"stateMutability":"nonpayable"},{"type":"function","name":"getProducerProjects","inputs":[{"name":"producer","type":"address","internalType":"address"}],"outputs":[{"name":"","type":"uint256[]","internalType":"uint256[]"}],"stateMutability":"view"},{"type":"function","name":"getProject","inputs":[{"name":"projectId","type":"uint256","internalType":"uint256"}],"outputs":[{"name":"","type":"tuple","internalType":"struct ProjectRegistry.Project","components":[{"name":"id","type":"uint256","internalType":"uint256"},{"name":"producer","type":"address","internalType":"address"},{"name":"projectHash","type":"bytes32","internalType":"bytes32"},{"name":"status","type":"uint8","internalType":"enum ProjectRegistry.ProjectStatus"},{"name":"createdAt","type":"uint256","internalType":"uint256"},{"name":"closedAt","type":"uint256","internalType":"uint256"},{"name":"completedAt","type":"uint256","internalType":"uint256"}]}],"stateMutability":"view"},{"type":"function","name":"owner","inputs":[],"outputs":[{"name":"","type":"address","internalType":"address"}],"stateMutability":"view"},{"type":"function","name":"renounceOwnership","inputs":[],"outputs":[],"stateMutability":"nonpayable"},{"type":"function","name":"transferOwnership","inputs":[{"name":"newOwner","type":"address","internalType":"address"}],"outputs":[],"stateMutability":"nonpayable"},{"type":"event","name":"OwnershipTransferred","inputs":[{"name":"previousOwner","type":"address","indexed":true,"internalType":"address"},{"name":"newOwner","type":"address","indexed":true,"internalType":"address"}],"anonymous":false},{"type":"event","name":"ProjectClosed","inputs":[{"name":"projectId","type":"uint256","indexed":true,"internalType":"uint256"}],"anonymous":false},{"type":"event","name":"ProjectCompleted","inputs":[{"name":"projectId","type":"uint256","indexed":true,"internalType":"uint256"}],"anonymous":false},{"type":"event","name":"ProjectCreated","inputs":[{"name":"projectId","type":"uint256","indexed":true,"internalType":"uint256"},{"name":"producer","type":"address","indexed":true,"internalType":"address"},{"name":"projectHash","type":"bytes32","indexed":false,"internalType":"bytes32"}],"anonymous":false},{"type":"error","name":"OwnableInvalidOwner","inputs":[{"name":"owner","type":"address","internalType":"address"}]},{"type":"error","name":"OwnableUnauthorizedAccount","inputs":[{"name":"account","type":"address","internalType":"address"}]}],"bytecode":{"object":"0x608060405234801561000f575f80fd5b50338061003557604051631e4fbdf760e01b81525f600482015260240160405180910390fd5b61003e81610048565b505f600155610097565b5f80546001600160a01b038381166001600160a01b0319831681178455604051919092169283917f8be0079c531659141344cd1fd0a4f28419497f9722a3daafe3b4186f6b6457e09190a35050565b61091e806100a45f395ff3fe608060405234801561000f575f80fd5b5060043610610085575f3560e01c80638da5cb5b116100585780638da5cb5b146100f057806393dc12e61461010a578063f0f3f2c81461011d578063f2fde38b1461013d575f80fd5b80632245f15214610089578063633e64c31461009e578063715018a6146100c7578063817d3b1f146100cf575b5f80fd5b61009c61009736600461072b565b610150565b005b6100b16100ac366004610742565b610292565b6040516100be919061076f565b60405180910390f35b61009c6102fb565b6100e26100dd36600461072b565b61030e565b6040519081526020016100be565b5f546040516001600160a01b0390911681526020016100be565b61009c61011836600461072b565b610447565b61013061012b36600461072b565b610575565b6040516100be91906107c6565b61009c61014b366004610742565b610673565b5f8181526002602052604090205481146101855760405162461bcd60e51b815260040161017c90610838565b60405180910390fd5b5f818152600260205260409020600101546001600160a01b031633146101bd5760405162461bcd60e51b815260040161017c9061087f565b60015f8281526002602081905260409091206003015460ff16908111156101e6576101e66107b2565b1461023f5760405162461bcd60e51b815260206004820152602360248201527f50726f6a65637452656769737472793a2050726f6a656374206e6f7420636c6f6044820152621cd95960ea1b606482015260840161017c565b5f81815260026020819052604080832060038101805460ff1916909317909255426006909201919091555182917f60d8df137e489b6216738e436244ca4700bd6d0c8371d3c8d9c80b54538111b991a250565b6001600160a01b0381165f908152600360209081526040918290208054835181840281018401909452808452606093928301828280156102ef57602002820191905f5260205f20905b8154815260200190600101908083116102db575b50505050509050919050565b6103036106b0565b61030c5f6106dc565b565b600180545f918261031e836108c4565b9091555050600180546040805160e0810182528281523360208083019182528284018881525f6060850181815242608087015260a0860182905260c0860182905287825260029384905295902084518155925183880180546001600160a01b0319166001600160a01b03909216919091179055518282015592516003820180549596939592949193909260ff19169184908111156103be576103be6107b2565b02179055506080820151600482015560a0820151600582015560c090910151600690910155335f818152600360209081526040808320805460018101825590845291909220018390555182907ff2d3dcc54e1f82689590c26fb40cb81342467a4b97c2982d80aa828a33b2265b906104399087815260200190565b60405180910390a392915050565b5f8181526002602052604090205481146104735760405162461bcd60e51b815260040161017c90610838565b5f818152600260205260409020600101546001600160a01b031633146104ab5760405162461bcd60e51b815260040161017c9061087f565b5f81815260026020819052604082206003015460ff16908111156104d1576104d16107b2565b146105285760405162461bcd60e51b815260206004820152602160248201527f50726f6a65637452656769737472793a2050726f6a656374206e6f74206f70656044820152603760f91b606482015260840161017c565b5f8181526002602052604080822060038101805460ff19166001179055426005909101555182917fa10da3bd85a8a7569325abd94177d0bbf25fbded5a3f6622a5588ce2cf1153ba91a250565b6105b16040805160e0810182525f8082526020820181905291810182905290606082019081526020015f81526020015f81526020015f81525090565b5f8281526002602052604090205482146105dd5760405162461bcd60e51b815260040161017c90610838565b5f82815260026020818152604092839020835160e0810185528154815260018201546001600160a01b03169281019290925280830154938201939093526003830154909291606084019160ff169081111561063a5761063a6107b2565b600281111561064b5761064b6107b2565b8152600482015460208201526005820154604082015260069091015460609091015292915050565b61067b6106b0565b6001600160a01b0381166106a457604051631e4fbdf760e01b81525f600482015260240161017c565b6106ad816106dc565b50565b5f546001600160a01b0316331461030c5760405163118cdaa760e01b815233600482015260240161017c565b5f80546001600160a01b038381166001600160a01b0319831681178455604051919092169283917f8be0079c531659141344cd1fd0a4f28419497f9722a3daafe3b4186f6b6457e09190a35050565b5f6020828403121561073b575f80fd5b5035919050565b5f60208284031215610752575f80fd5b81356001600160a01b0381168114610768575f80fd5b9392505050565b602080825282518282018190525f9190848201906040850190845b818110156107a65783518352928401929184019160010161078a565b50909695505050505050565b634e487b7160e01b5f52602160045260245ffd5b815181526020808301516001600160a01b03169082015260408083015190820152606082015160e08201906003811061080d57634e487b7160e01b5f52602160045260245ffd5b806060840152506080830151608083015260a083015160a083015260c083015160c083015292915050565b60208082526027908201527f50726f6a65637452656769737472793a2050726f6a65637420646f6573206e6f6040820152661d08195e1a5cdd60ca1b606082015260800190565b60208082526025908201527f50726f6a65637452656769737472793a204e6f742070726f6a6563742070726f604082015264323ab1b2b960d91b606082015260800190565b5f600182016108e157634e487b7160e01b5f52601160045260245ffd5b506001019056fea26469706673582212207bc4011eac9fd2b6f1010147f0498e6438ea45444b7dea6cae90577f781b7d9064736f6c63430008170033","linkReferences":{}},"methodIdentifiers":{"closeProject(uint256)":"93dc12e6","completeProject(uint256)":"2245f152","createProject(bytes32)":"817d3b1f","getProducerProjects(address)":"633e64c3","getProject(uint256)":"f0f3f2c8","owner()":"8da5cb5b","renounceOwnership()":"715018a6","transferOwnership(address)":"f2fde38b"},"id":2}