{"abi":[{"type":"constructor","inputs":[{"name":"scriptNFTAddress","type":"address","internalType":"address"},{"name":"platformFeeManagerAddress","type":"address","internalType":"address"}],"stateMutability":"nonpayable"},{"type":"function","name":"fundProject","inputs":[{"name":"projectId","type":"uint256","internalType":"uint256"}],"outputs":[],"stateMutability":"payable"},{"type":"function","name":"getProjectFunds","inputs":[{"name":"projectId","type":"uint256","internalType":"uint256"}],"outputs":[{"name":"","type":"uint256","internalType":"uint256"}],"stateMutability":"view"},{"type":"function","name":"owner","inputs":[],"outputs":[{"name":"","type":"address","internalType":"address"}],"stateMutability":"view"},{"type":"function","name":"refundProducer","inputs":[{"name":"projectId","type":"uint256","internalType":"uint256"},{"name":"producer","type":"address","internalType":"address"}],"outputs":[],"stateMutability":"nonpayable"},{"type":"function","name":"releasePayment","inputs":[{"name":"submissionId","type":"uint256","internalType":"uint256"},{"name":"writer","type":"address","internalType":"address"},{"name":"producer","type":"address","internalType":"address"},{"name":"writerAmount","type":"uint256","internalType":"uint256"},{"name":"platformFeeAmount","type":"uint256","internalType":"uint256"}],"outputs":[],"stateMutability":"nonpayable"},{"type":"function","name":"renounceOwnership","inputs":[],"outputs":[],"stateMutability":"nonpayable"},{"type":"function","name":"setPlatformFeeManagerAddress","inputs":[{"name":"platformFeeManagerAddress","type":"address","internalType":"address"}],"outputs":[],"stateMutability":"nonpayable"},{"type":"function","name":"setScriptNFTAddress","inputs":[{"name":"scriptNFTAddress","type":"address","internalType":"address"}],"outputs":[],"stateMutability":"nonpayable"},{"type":"function","name":"transferOwnership","inputs":[{"name":"newOwner","type":"address","internalType":"address"}],"outputs":[],"stateMutability":"nonpayable"},{"type":"event","name":"OwnershipTransferred","inputs":[{"name":"previousOwner","type":"address","indexed":true,"internalType":"address"},{"name":"newOwner","type":"address","indexed":true,"internalType":"address"}],"anonymous":false},{"type":"event","name":"PaymentReleased","inputs":[{"name":"submissionId","type":"uint256","indexed":true,"internalType":"uint256"},{"name":"writer","type":"address","indexed":true,"internalType":"address"},{"name":"amount","type":"uint256","indexed":false,"internalType":"uint256"}],"anonymous":false},{"type":"event","name":"ProjectFunded","inputs":[{"name":"projectId","type":"uint256","indexed":true,"internalType":"uint256"},{"name":"amount","type":"uint256","indexed":false,"internalType":"uint256"}],"anonymous":false},{"type":"event","name":"RefundIssued","inputs":[{"name":"projectId","type":"uint256","indexed":true,"internalType":"uint256"},{"name":"producer","type":"address","indexed":true,"internalType":"address"},{"name":"amount","type":"uint256","indexed":false,"internalType":"uint256"}],"anonymous":false},{"type":"error","name":"OwnableInvalidOwner","inputs":[{"name":"owner","type":"address","internalType":"address"}]},{"type":"error","name":"OwnableUnauthorizedAccount","inputs":[{"name":"account","type":"address","internalType":"address"}]},{"type":"error","name":"ReentrancyGuardReentrantCall","inputs":[]}],"bytecode":{"object":"0x608060405234801561000f575f80fd5b50604051610b91380380610b9183398101604081905261002e916100fc565b338061005357604051631e4fbdf760e01b81525f600482015260240160405180910390fd5b61005c81610092565b5060018055600280546001600160a01b039384166001600160a01b0319918216179091556003805492909316911617905561012d565b5f80546001600160a01b038381166001600160a01b0319831681178455604051919092169283917f8be0079c531659141344cd1fd0a4f28419497f9722a3daafe3b4186f6b6457e09190a35050565b80516001600160a01b03811681146100f7575f80fd5b919050565b5f806040838503121561010d575f80fd5b610116836100e1565b9150610124602084016100e1565b90509250929050565b610a578061013a5f395ff3fe608060405260043610610084575f3560e01c8063715018a611610057578063715018a6146101195780638da5cb5b1461012d578063bc92186114610153578063e6ce579f14610172578063f2fde38b14610191575f80fd5b806314c98ff21461008857806337790774146100c657806337b4c206146100e75780636c563abe14610106575b5f80fd5b348015610093575f80fd5b506100b36100a2366004610914565b5f9081526004602052604090205490565b6040519081526020015b60405180910390f35b3480156100d1575f80fd5b506100e56100e0366004610946565b6101b0565b005b3480156100f2575f80fd5b506100e5610101366004610970565b610334565b6100e5610114366004610914565b610661565b348015610124575f80fd5b506100e561071f565b348015610138575f80fd5b505f546040516001600160a01b0390911681526020016100bd565b34801561015e575f80fd5b506100e561016d3660046109ba565b610732565b34801561017d575f80fd5b506100e561018c3660046109ba565b6107b2565b34801561019c575f80fd5b506100e56101ab3660046109ba565b610832565b6101b861086f565b6101c061089b565b5f828152600460205260409020548061022a5760405162461bcd60e51b815260206004820152602160248201527f457363726f774d616e616765723a204e6f2066756e647320746f20726566756e6044820152601960fa1b60648201526084015b60405180910390fd5b5f83815260046020526040808220829055516001600160a01b0384169083908381818185875af1925050503d805f811461027f576040519150601f19603f3d011682016040523d82523d5f602084013e610284565b606091505b50509050806102e15760405162461bcd60e51b8152602060048201526024808201527f457363726f774d616e616765723a204661696c656420746f2073656e64207265604482015263199d5b9960e21b6064820152608401610221565b826001600160a01b0316847f7a482fdeb6bc9a1376f597068a214a7a39472bb2eff1b8cad21ba04f49ddca1b8460405161031d91815260200190565b60405180910390a3505061033060018055565b5050565b61033c61086f565b61034461089b565b5f82116103af5760405162461bcd60e51b815260206004820152603360248201527f457363726f774d616e616765723a2057726974657220616d6f756e74206d75736044820152720742062652067726561746572207468616e203606c1b6064820152608401610221565b5f81116104245760405162461bcd60e51b815260206004820152603960248201527f457363726f774d616e616765723a20506c6174666f726d2066656520616d6f7560448201527f6e74206d7573742062652067726561746572207468616e2030000000000000006064820152608401610221565b60025460405163d97da77560e01b8152600481018790525f9182916001600160a01b039091169063d97da775906024016040805180830381865afa15801561046e573d5f803e3d5ffd5b505050506040513d601f19601f8201168201806040525081019061049291906109da565b915091508681146104f15760405162461bcd60e51b8152602060048201526024808201527f457363726f774d616e616765723a20496e76616c6964207375626d697373696f6044820152631b88125160e21b6064820152608401610221565b5f866001600160a01b0316856040515f6040518083038185875af1925050503d805f811461053a576040519150601f19603f3d011682016040523d82523d5f602084013e61053f565b606091505b50509050806105a65760405162461bcd60e51b815260206004820152602d60248201527f457363726f774d616e616765723a204661696c656420746f2073656e6420667560448201526c373239903a37903bb934ba32b960991b6064820152608401610221565b60035f9054906101000a90046001600160a01b03166001600160a01b031663d4d5d32a856040518263ffffffff1660e01b81526004015f604051808303818588803b1580156105f3575f80fd5b505af1158015610605573d5f803e3d5ffd5b5050505050866001600160a01b0316887f21d71db5be59bb9fa133895586b7404307dd33fb93b16db09dc6f1d9d7d231b08760405161064691815260200190565b60405180910390a350505061065a60018055565b5050505050565b5f34116106c55760405162461bcd60e51b815260206004820152602c60248201527f457363726f774d616e616765723a20416d6f756e74206d75737420626520677260448201526b06561746572207468616e20360a41b6064820152608401610221565b5f81815260046020526040812080543492906106e29084906109fc565b909155505060405134815281907f26130d0cd3f6aa101d05e4a4f2ff016fd5b934363d17bdd03ff5dc03ec5934a99060200160405180910390a250565b61072761086f565b6107305f6108c5565b565b61073a61086f565b6001600160a01b0381166107905760405162461bcd60e51b815260206004820152601e60248201527f457363726f774d616e616765723a20496e76616c6964206164647265737300006044820152606401610221565b600380546001600160a01b0319166001600160a01b0392909216919091179055565b6107ba61086f565b6001600160a01b0381166108105760405162461bcd60e51b815260206004820152601e60248201527f457363726f774d616e616765723a20496e76616c6964206164647265737300006044820152606401610221565b600280546001600160a01b0319166001600160a01b0392909216919091179055565b61083a61086f565b6001600160a01b03811661086357604051631e4fbdf760e01b81525f6004820152602401610221565b61086c816108c5565b50565b5f546001600160a01b031633146107305760405163118cdaa760e01b8152336004820152602401610221565b6002600154036108be57604051633ee5aeb560e01b815260040160405180910390fd5b6002600155565b5f80546001600160a01b038381166001600160a01b0319831681178455604051919092169283917f8be0079c531659141344cd1fd0a4f28419497f9722a3daafe3b4186f6b6457e09190a35050565b5f60208284031215610924575f80fd5b5035919050565b80356001600160a01b0381168114610941575f80fd5b919050565b5f8060408385031215610957575f80fd5b823591506109676020840161092b565b90509250929050565b5f805f805f60a08688031215610984575f80fd5b853594506109946020870161092b565b93506109a26040870161092b565b94979396509394606081013594506080013592915050565b5f602082840312156109ca575f80fd5b6109d38261092b565b9392505050565b5f80604083850312156109eb575f80fd5b505080516020909101519092909150565b80820180821115610a1b57634e487b7160e01b5f52601160045260245ffd5b9291505056fea264697066735822122099bcfd9b13fa4fc6b208445569cdfa4d0a8d91060e1b8be3357b5ffaee2355fb64736f6c63430008170033","linkReferences":{}},"methodIdentifiers":{"fundProject(uint256)":"6c563abe","getProjectFunds(uint256)":"14c98ff2","owner()":"8da5cb5b","refundProducer(uint256,address)":"37790774","releasePayment(uint256,address,address,uint256,uint256)":"37b4c206","renounceOwnership()":"715018a6","setPlatformFeeManagerAddress(address)":"bc921861","setScriptNFTAddress(address)":"e6ce579f","transferOwnership(address)":"f2fde38b"},"id":0}